:020000040000FA
:060000002AEF0FF01200D0
:020006001200E6
:06000800F9EF02F0120006
:02000E000100EF
:0C0010007E1E000008010000020000003D
:04001C00D9CFE6FF53
:10002000E1CFD9FFE652010EE66E7CDBE55200011E
:10003000AC6F020EE66E76DBE5520001AD6F8B6BA6
:100040008C6BA86B926A936AB90E9416C80ED56E23
:10005000020E9D6E9D86080EA06EF06A840EF16EF3
:10006000E00EF26E070ECA6E0F0EBD6EF80ECB6E6E
:10007000BE6A870ED56E876B886B0001010EFF6F1D
:100080000F0EE66EE66AE66A600EE66E000EE66E3B
:1000900060EC0DF0206E050EE15E20500001706BEB
:1000A0007B6B300E946F956FA96B816A806A906F3D
:1000B000916F926F936FAA6BAB6BE552E552E7CFEE
:1000C000D9FF1200D9CFE6FFE1CFD9FF020EE1261A
:1000D00000017B6B060E0001F95D03E36D50020B1E
:1000E00001E092D00A0EE66E980EE66E000EE66E05
:1000F00027EC08F0E552E552E5520001876F000950
:100100000EE08C5101E18AD800018C0501E1FBD899
:10011000020E00018C5D01E11FD900018B6B030E03
:100120008C5D19E13ED9040E00018C5D14E10A0ECC
:10013000746F0001D5510FE10001710ED66F000EF2
:10014000D76F0001040EDA6F0001DB6B0001010EB6
:10015000D56F00018C6B140E00018C5D1AE1410E0D
:10016000716F430E726F4B0E736F0A0E746F000146
:10017000D5510FE10001710ED66F000ED76F00014F
:10018000040EDA6F0001DB6B0001010ED56F000178
:100190008C6B0A0E00018C5D37E1AA51AB1107E1AF
:1001A000010EAA6FAB6B81688068ADC0A9F0E80E44
:1001B000AA1902E1030EAB1927E1410E716F430E3C
:1001C000726F4B0E736F0A0E746F816A806AACC0D7
:1001D000A9F0360E946F340E956F300E906F916FBC
:1001E000926F936F0001D5510FE10001710ED66F30
:1001F000000ED76F0001040EDA6F0001DB6B000107
:10020000010ED56F00018C6B020EE15C02E2E16A27
:10021000E552E16EE552E7CFD9FF1200D9CFE6FFF4
:10022000E1CFD9FFE65200019851550A52E0100A79
:100230003BE01F0A29E0130A22E0110A1EE0150A1A
:1002400017E01F0A10E01E0A09E01F0A02E08C6B8B
:1002500055D0530E8D6F010E8C6F50D04C0E8D6F9C
:10026000010E8C6F4BD0520E8D6F010E8C6F46D0ED
:100270004D0E8D6F010E8C6F41D08C6B3FD00A0EEE
:100280008C6FAA6BAB6B3AD0140E8C6F816A806A4C
:10029000ACC0A9F0360E946F340E956F300E906F8F
:1002A000916F926F936F2AD0300E9A5D206E300E50
:1002B000995D0A0DF3502024DF6EDFCFACF0DFCF65
:1002C000E6FF010EE66E3EDAE552E55200018C6B68
:1002D00015D0300E9A5D206E300E995D0A0DF350E8
:1002E0002024DF6EDFCFADF0DFCFE6FF020EE66E3B
:1002F00029DAE552E55200018C6B00D0E552E55257
:10030000E7CFD9FF1200580E0001995D02E18C6B16
:1003100022D0300E995D0DE3995139080AE3300E71
:10032000995D100DF3CF8EF0020E8C6F99C096F090
:1003300012D0410E995D0EE3995146080BE3410E30
:10034000995D0A0F100DF3CF8EF0020E8C6F99C0DD
:1003500096F001D08C6B1200580E00019A5D02E1FC
:100360008C6B1ED0300E9A5D0BE39A51390808E36E
:10037000300E9A5D8F6F030E8C6F9AC097F010D07D
:10038000410E9A5D0CE39A51460809E39AC097F032
:10039000410E9A5D0A0F8F6F030E8C6F01D08C6B2C
:1003A0001200D9CFE6FFE1CFD9FF070EE126030EF9
:1003B000DB6A040EDB6A050EDB6A00018EAF31D00A
:1003C0008D514D0A24E01F0A19E01E0A0EE01F0A93
:1003D00003E0040E8C6F24D0730E716F94C072F022
:1003E00095C073F0040E8C6F1BD06C0E716F300EC5
:1003F000726F92C073F0040E8C6F12D0720E716F18
:10040000300E726F93C073F0040E8C6F09D06D0EB6
:10041000716F90C072F091C073F0040E8C6F00D0B9
:10042000DED08D514D0A01E1C0D01F0A64E01E0AE2
:100430001DE01F0A01E0D2D096C094F097C095F05D
:100440008E518F25DF6E8C6B060EACC0DBFFDB5050
:10045000D880DF5403E2ACC0DFFF05D0AD51DF5CD4
:1004600002E2ADC0DFFFDFCFA9F0B8D097C092F0B5
:10047000030EDB6A010E8F15010807E1030EDB5046
:100480000809E76E030EE7CFDBFF020E8F150208A7
:1004900007E1030EDB500409E76E030EE7CFDBFF35
:1004A000040E8F15040807E1030EDB500209E76E06
:1004B000030EE7CFDBFF080E8F15080807E1030ED8
:1004C000DB500109E76E030EE7CFDBFFF00E891466
:1004D000E76E010EE7CFDBFF030EDBCFE6FF010E79
:1004E000DB50E552E710E76E010EE7CFDBFFDB5094
:1004F000806E8C6B73D0040EDB6A050EDB6A97C0CE
:1005000093F0010E8F15010807E1050EDB5002097B
:10051000E76E050EE7CFDBFF020E8F15020807E13D
:10052000050EDB500109E76E050EE7CFDBFF040E79
:100530008F15040807E1040EDB502009E76E040E56
:10054000E7CFDBFF080E8F15080807E1040EDB502C
:100550001009E76E040EE7CFDBFF0F0E8914E76E7C
:10056000010EE7CFDBFF040EDBCFE6FF010EDB5011
:10057000E552E710E76E010EE7CFDBFFDB50806E40
:10058000FC0E8A14E76E020EE7CFDBFF050EDBCF11
:10059000E6FF020EDB50E552E710E76E020EE7CFF2
:1005A000DBFFDB50816E8C6B19D096C090F097C04A
:1005B00091F08E518F25040DF350DF6E030E8A14D7
:1005C000E76E020EE7CFDBFFDB50DF10E76E020EB7
:1005D000E7CFDBFFDB50816E8C6B00D08C6B070E9E
:1005E000E15C02E2E16AE552E16EE552E7CFD9FF54
:1005F0001200DACFE4FFE2CFDAFFE9CFE4FFEACF7F
:10060000E4FFF6CFE4FFF7CFE4FFF3CFE4FFF4CF4E
:10061000E4FFFACFE4FF00EE00F0140EE80403E379
:10062000EECFE4FFFBD7E652F2A406D0F29400012D
:10063000010EFF6FD59E5CD09EA25AD00001AA5138
:10064000AB1103E0AA2B000EAB23A85103E1BE6857
:10065000A82B4DD0A80545E1520E186EB80E196EA4
:100660001E0E1A6EC00E1B6EA9C009F0AEEC05F08E
:1006700007C01CF008C01DF009C01EF00AC01FF022
:100680001CC00CF01DC00DF01EC00EF01FC00FF0FE
:1006900018C007F019C008F01AC009F01BC00AF012
:1006A00056EC06F007C014F008C015F009C016F0AB
:1006B0000AC017F00C6A0D6A780E0E6E430E0F6EAC
:1006C00014C007F015C008F016C009F017C00AF0F2
:1006D000C0EC05F0F0EC06F00950BE6E0001A82B4E
:1006E00006D0BE6AA82B140EA85D01E1A86B9E92ED
:1006F000E55200EE13F0140EE80403E3E5CFEDFF3E
:10070000FBD7E5CFFAFFE5CFF4FFE5CFF3FFE5CF69
:10071000F7FFE5CFF6FFE5CFEAFFE5CFE9FFE5CF4D
:10072000DAFF1100D9CFE6FFE1CFD9FFFE0EDB5093
:10073000A96EA69EA69CA680A85000D0E552E7CF41
:10074000D9FF1200D9CFE6FFE1CFD9FFF29EA69ED6
:10075000A684FE0EDB50A96EFD0EDB50A86E550E72
:10076000A76EAA0EA76EA682A1A8FED7A198F28EA8
:08077000E552E7CFD9FF1200AA
:08077800D9CFE6FFE1CFD9FF64
:10078000040EE1264F0EAB16AC9ACF0E9D16DF6A13
:10079000DFCF20F0100EE76E2018E8AE02D0E7346D
:1007A00002D0E750205C16E2DFCFE9FFEA6AE9BE3B
:1007B000EA68AE0EE926000EEA22EF6ADFCFE9FF13
:1007C000EA6AE9BEEA68BE0EE926000EEA22EF6A8E
:1007D000DF2ADED70001CE6BD06BCF6BD16BFE0E64
:1007E000DB040DE1010ED26F2C0EF36E020EF3CF7F
:1007F000DBFF030EDB6ADE52680EDD6E0CD0020EEC
:10080000D26F2C0EF36E020EF3CFDBFF030EDB6A0A
:10081000DE52330EDD6E010EDBCFE6FFE66A020E1E
:10082000DBCFE6FF78EC0EF0E552E552E552FC0E28
:10083000E66E19EC0FF0E5529D9A9D989E9A9E984F
:100840009D8A9D88040EE15C02E2E16AE552E16E58
:10085000E552E7CFD9FF1200D9CFE6FFE1CFD9FFAC
:100860000001CE5100080EE3FC0EDBCF20F0100E8D
:10087000E76E2018E8AE02D0203403D0E750D880CD
:10088000205403E2000E25D024D0FC0EDBCF20F054
:10089000216A20BE216820C0E6FF21C0E6FFFD0ED0
:1008A000DBCFE6FFFE0EDBCFE6FFAE0EE66E000E00
:1008B000E66E12EC0DF0226E060EE15E2250FC0E8A
:1008C000DB040001CE6F010ECF6FAEC0ADFF9D887F
:1008D00000D0E552E7CFD9FF1200D9CFE6FFE1CF34
:1008E000D9FF0001CE5100080EE3FC0EDBCF20F053
:1008F000100EE76E2018E8AE02D0203403D0E75087
:10090000D880205403E2000E2CD02BD0FC0EDBCF7D
:1009100020F0216A20BE216820C0E6FF21C0E6FF4A
:10092000FD0EDBCF22F0FE0EDBCF23F0246A22C0C7
:10093000E6FF23C0E6FF24C0E6FFAE0EE66E000E23
:10094000E66E3DEC0DF0256E070EE15E2550FC0EC7
:10095000DB040001CE6F010ECF6FAEC0ADFF9D88EE
:1009600000D0E552E7CFD9FF1200D9CFE6FFE1CFA3
:10097000D9FF0001CE51000803E2000E2BD02AD08F
:10098000FD0EDBCFE6FFFE0EDBCFE6FFAE0EE66E22
:10099000000EE66E7AEC0DF0E552E552E552E552B6
:1009A000FD0EDBCFE6FFFE0EDBCFE6FFB4EC0DF075
:1009B000E552E552F3CF20F0F4CF21F02006000EEF
:1009C000215A20C0CEF0AEC0ADFF9D880001010EBF
:1009D000CF6F00D0E552E7CFD9FF1200D9CFE6FFA5
:1009E000E1CFD9FF0001CE51000803E2000E32D062
:1009F00031D0FD0EDBCF20F0FE0EDBCF21F0226ADE
:100A000020C0E6FF21C0E6FF22C0E6FFAE0EE66E84
:100A1000000EE66E9BEC0DF0236E050EE15E23509A
:100A2000FD0EDBCFE6FFFE0EDBCFE6FFB4EC0DF0F4
:100A3000E552E552F3CF20F0F4CF21F02006000E6E
:100A4000215A20C0CEF0AEC0ADFF9D880001010E3E
:100A5000CF6F00D0E552E7CFD9FF1200D9CFE6FF24
:100A6000E1CFD9FFE652010E0001D05D02E2000E97
:100A700027D0D0C0DFFFD051E66EE66ABE0EE66E2C
:100A8000000EE66EFD0EDBCFE6FFFE0EDBCFE6FFCF
:100A900012EC0DF0206E060EE15E2050DFCF20F04C
:100AA000216A20BE2168FD0EDB502024E96EFE0E77
:100AB000DB502120EA6EEF6A0001D06B010E00D0FE
:100AC000E552E552E7CFD9FF1200D9CFE6FFE1CFDB
:100AD000D9FFE652FC0EDB500001D05D02E2000EB1
:100AE00038D0FC0EDB50DF6EFD0EDBCFE9FFFE0ED3
:100AF000DBCFEAFFEF6ADFCF20F0216A20BE21685A
:100B000020C0E6FF21C0E6FFBE0EE66E000EE66ED8
:100B1000FD0EDBCFE6FFFE0EDBCFE6FF12EC0DF0A5
:100B2000226E060EE15E22500001BE6BDFCF20F088
:100B3000216A20BE2168FD0EDB502024E96EFE0EE6
:100B4000DB502120EA6EEF6AD0C0D3F0D06B010EEB
:0C0B500000D0E552E552E7CFD9FF1200BB
:040B5C00019E05D021
:100B6000019E09AE02D0096C018E09C003F0026A31
:100B7000136A126A860E046E056A33EF07F00F7E61
:100B8000016A6FEC07F087EC07F001B617EF07F08A
:100B900001A20AD001AA03D001BE17EF07F001A4F9
:100BA00023EF07F020EF07F001AA05D001AC23EFF7
:100BB00007F020EF07F001A00AD001A808D001BE7D
:100BC00004D001A402D02CEF07F030EF07F0126A36
:100BD000056A0F500A5C116E10E307C013F008C0DD
:100BE00002F009C003F00AC010F00CC007F00DC0FD
:100BF00008F00EC009F0013A09D00CC013F00DC086
:100C000002F00EC003F00FC010F0116C019E01BC89
:100C1000018E10C004F001B05FEF07F01A0E1160F2
:100C20005FEF07F0046A0A6A01A408D0076C081E87
:100C3000091E0A1EE86A082209220A2201AC08D00D
:100C4000136C021E031E041EE86A02220322042201
:100C5000066A115207E00A340932083207320632B6
:100C6000112EF9D7075013260850022209500322EB
:100C70000A50042206C012F0019E04AE0BD0126C82
:100C8000131E021E031E041EE86A13220222032200
:100C90000422018E04A006D0D8800332023213321F
:100CA0001232102A10C004F033EF07F0016A6FEC23
:100CB00007F087EC07F001B617EF07F001A205D0A7
:100CC00001B817EF07F01EEF07F001AA05D001B039
:100CD00017EF07F01EEF07F001B002D001A802D015
:100CE0002AEF07F0056A0F500A24046EE86A05220D
:100CF0007E0E045EE86A055A126A136A026A036A83
:100D00000E500902F4CF03F0F3CF02F00D500902A8
:100D1000F3501326F4500222000E03220E50080254
:100D2000F3501326F4500222000E03220C50090245
:100D3000F3501226F4501322000E022203220D500B
:100D40000802F3501226F4501322000E022203224E
:100D50000E500702F3501226F4501322000E022206
:100D600003220C500802F4501226000E1322022215
:100D700003220D500702F4501226000E1322022205
:100D8000032233EF07F009C013F008C012F0085037
:100D90000D02F4CF07F0F3CF06F009500E02F4CFA6
:100DA00009F0F3CF08F00D02F3500726F4500822A3
:100DB000E86A092212500E02F3500726F450082266
:100DC000E86A09220EAEE9EF06F01250085E1350F1
:100DD000095A13AE000C0D50085E0E50095A000C53
:100DE000016A6FEC07F001B6FAEF06F001A20AD033
:100DF00001B403D07F0E096E19D0800E096E16D093
:100E0000096A14D001B0FCD7870E0A60F1D77E0EB4
:100E10000A64F6D7860E0A5C04E0D89009320A2AE2
:100E2000F9D701A403D0096C09AEEAD712007F0EEE
:100E30000A6EFF0E096E086E076E12007F0E01BE6D
:100E4000FF0E0A6E02D07F0E0A6E800E096E086ACF
:100E5000076AF3D701AE04D0800E0A6E096AF7D78D
:100E60000A6A096AF4D70350021013101210F8E04E
:100E700005BEF0D703BE0CD004500510EBE0D890AF
:100E800012361336023603360406D8A00506F2D70A
:100E90000550D4E10428D2E012AE11D07F0E121416
:100EA00002E113A00CD0132AE86A0222032207E30E
:100EB000D880033202321332042A0428BFE00450DF
:100EC000C9E013C007F002C008F00334096E043013
:100ED0000A6E09320A9E01BE0A8E1DEF07F009361E
:100EE0000A3602E30184017E06E101800A6A096A8A
:100EF000086A076A12000A2803E0D8800932120043
:100F0000D890093202E101821200018612000E36E9
:100F10000F3602E3018C017E06E101880F6A0E6A3A
:100F20000D6A0C6A12000F2803E0D8800E321200FE
:0A0F3000D8900E32EAE1018A1200A7
:060F3A00040120511F0B11
:100F4000010801E05BD02051600BE842E842E84232
:100F5000E842E842010801E051D0245103E02405B1
:100F600001E04CD02151230A48E0010A40E0030A85
:100F700030E0010A25E0240A22E0070A1FE0010A06
:100F80001CE0030A11E0010A01E038D00101030E60
:100F9000016F0101E70E026F000E036F0001FA936B
:100FA0000101080E066F2AD00101030E016F010135
:100FB000E70E046F000E056F21D020D01FD01ED089
:100FC0000101030E016F0101DC0E046F000E056FBD
:100FD00015D00101030E016F0101DC0E026F000E3E
:100FE000036F0001FA930101070E066F07D001019C
:100FF000030E016F22C4E3F001D000D01200000103
:10100000DC6BC20EDD6F010EDE6FDF6BE06BE16B40
:10101000080EE26FD56BD46B1A0E726E1E0E736ED5
:101020000401000E166F050E176F400E146F0401B9
:10103000196F080E1A6F050E1B6F880E186F0401CA
:10104000480E1E6F050E1F6F400E1C6F1200D9CF89
:10105000E6FFE1CFD9FF0001D46B040118BF30D007
:10106000FC0EDBCF20F01951D880205403E2FC0E97
:1010700019C4DBFF0001D46BFC0EDB50D45D19E218
:10108000D451EA6A080FE96E050EEA22EF50E66EC7
:10109000D451E76EFD0EDBCFE9FFFE0EDBCFEAFF9A
:1010A000E750E926000EEA22E552E750EF6ED42B16
:1010B000E3D70401400E196F1817187D880E181316
:1010C0000001D45100D0E552E7CFD9FF1200D9CFAB
:1010D000E6FFE1CFD9FFE6520001D55101E02FD064
:1010E000DF6ADF2ADF50206E216AFF0E201801E13F
:1010F000215001E10BD0FD0EDBCFE9FFDB2AFE0E14
:10110000DBCFEAFF01E3DB2AEF50EBE1DF50206E9B
:10111000216AD950FD0FE96EFF0EDA20EA6E2050E9
:10112000EE5E2150ED5AFD0EDBCFD6F0FE0EDBCF8A
:10113000D7F0DFCFDAF00001DB6B010ED56FE5529F
:10114000E552E7CFD9FF1200D9CFE6FFE1CFD9FFB3
:10115000E6520001D55101E030D0DF6ADF2ADF50CE
:10116000206E216AFF0E201801E1215001E10CD010
:10117000FD0EDBCFF6FFDB2AFE0EDBCFF7FF01E330
:10118000DB2A0800F550EAE1DF50206E216AD950D1
:10119000FD0FE96EFF0EDA20EA6E2050EE5E215060
:1011A000ED5AFD0EDBCFD6F0FE0EDBCFD7F0DFCF52
:1011B000DAF00001010EDB6FD56FE552E552E7CFA3
:1011C000D9FF1200D9CFE6FFE1CFD9FFE6520401E3
:1011D0001CBF6BD0030E0001D55D01E1D56BD5516D
:1011E00001E163D0020ED55D06E104011D6B000133
:1011F000030ED56F54D0D50552E1400E206E216A02
:10120000DA51205C000E215803E2400EDF6E02D05E
:10121000DAC0DFFFDFCF1DF4DF50DA5DDA6F480E92
:10122000D86F050ED96FDB0515E1DF5012E0D6C08F
:10123000F6FFD7C0F7FF0800F550D8C0E9FFD9C0C6
:10124000EAFFEF6ED82B000ED923D62BD723DF066B
:10125000ECD713D0DF5011E0D6C0E9FFD7C0EAFFCA
:10126000EF50D8C0E9FFD9C0EAFFEF6ED82B000ECF
:10127000D923D62BD723DF06EDD7DA5110E10401AD
:101280001D51206E216A400E201801E1215004E119
:101290000001020ED56F03D00001030ED56F400E82
:1012A00004011C171C7D880E1C13E552E552E7CF84
:0412B000D9FF120050
:0C12B40004012051600BE842E842E842CF
:1012C000E842E842000901E055D02151070A51E007
:1012D0000B0A4FE0070A40E0010A2CE00B0A28E065
:1012E000020A26E0030A22E0080A12E0010A0EE0E0
:1012F0000F0A0AE0030A01E03CD00101010E016F70
:101300000001040EF96F36D036D834D090D832D0E0
:101310000101010E016F0101FB0E026F000E036F50
:101320000001FA930101010E066F24D0A8D822D043
:10133000F4D820D00101010E016F040124510101F4
:10134000026F036BFC0E0227000E03230001FA93C9
:101350000101010E066F0ED00101010E016F0401A3
:101360002451EA6AFC0FE96E000EEA2222C4EFFF64
:1013700001D000D01200800E0401205D57E12351FE
:10138000030A34E0010A10E0030A01E04DD0010134
:10139000010E016F0101840E026F1B0E036F120E0E
:1013A0000101066F076B40D00101010E016F0401BE
:1013B0002251F66EF76AD890F636F736450EF626C5
:1013C0001C0EF7220900F5CF02F10A00F5CF03F158
:1013D000020E0101F76A0225F66E0351F722090099
:1013E000F5CF06F10A00F5CF07F11ED00101010E7D
:1013F000016F04012251F66EF76AD890F636F7367F
:10140000490EF6261C0EF7220900F5CF02F10A005C
:10141000F5CF03F102C1F6FF03C1F7FF0800F55055
:101420000101066F076B00D00001FA831200010171
:10143000010E016F0F0EE66E710EE66E0F0EE66E78
:10144000FDEC0CF0E552E552E552010EE66EFC0EA5
:10145000E66E000EE66EFDEC0CF0E552E552E5524C
:1014600022C4FBF00401225104E10001050EF96FD2
:1014700005D00001060EF96FFFEC07F01200040121
:10148000286B296B040120511F0B020A14E0030A88
:101490000EE0010A01E033D00101010E016F0401E9
:1014A00028810001FAA102D00401288328D001017B
:1014B000010E016F24D00101010E016F04012451BE
:1014C0000F0B080DF350216A000F206E040E21222D
:1014D0002451800B01E0010E040DF3500101202482
:1014E000046F000E2120056F04C1E9FF05C1EAFF6A
:1014F000EF50040B03E00401010E286F00D001013E
:1015000001050AE10101280E026F040E036F0001BC
:10151000FA930101020E066F12000401220510E188
:1015200020511F0B00090CE10101010E016F030E98
:101530000401215D03E10001FA8102D00001FA916A
:10154000040122513AE120511F0B020836E12451D7
:101550000F0B000932E00101010E016F040124515B
:101560000F0B080DF350216A000F206E040E21228C
:101570002451800B01E0010E040DF35001012024E1
:10158000046F000E2120056F030E0401215D07E1A9
:10159000840E04C1E9FF05C1EAFFEF6E0ED024AF4F
:1015A00006D004C1E9FF05C1EAFFEF6A06D0880E44
:0C15B00004C1E9FF05C1EAFFEF6E120064
:0415BC006C5002E08D
:1015C000000E01D0010E00090BE0040100513C0B9C
:1015D000E842E8420D0802E10CD801D040D808D01A
:1015E0006C5002E0000E01D0010E040901E047D862
:1015F0001200D9CFE6FFE1CFD9FFE6520101006B1F
:10160000016B066B076B5AEC09F0DF6ADF50206E46
:10161000216A010E205C000E21581BE201010151DC
:1016200001E017D0F76ADF34FE0BF736F66E4F0E87
:10163000F6261C0EF7220900F5CF20F00800F5CFA2
:1016400021F004D021C0FAFF2050F96EFBDFDF2A21
:10165000DDD7DDD8E552E552E7CFD9FF1200020E03
:101660000101005D0AE196D8040100BD03D0C80E57
:10167000006F02D0880E006F01D00FD91200040E47
:101680000001F95D0AE122C46EFF6E50000803E21A
:10169000050EF96F02D0030EF96F010100050AE192
:1016A0000BD8040104BD03D0C80E046F02D0880E0D
:1016B000046F01D0F2D81200D9CFE6FFE1CFD9FFF5
:1016C000020EE1260101080E065D000E075905E233
:1016D00006C1DEFF07C1DDFF03D0080EDE6EDD6A46
:1016E000040104930491010EDB500413DFCF05F4D1
:1016F000000EDB500101065F010EDB50075B280E78
:10170000046F040E056F0001FAA31ED0D9CFE9FFC4
:10171000DACFEAFFEE50ED1016E002C1F6FF03C18A
:10172000F7FF0800F55004C1E9FF05C1EAFFEF6EBD
:101730000101042B000E0523022B0323DF06010EFB
:1017400001E2DB06E3D71CD0D9CFE9FFDACFEAFF0D
:10175000EE50ED1015E002C1E9FF03C1EAFFEF50C2
:1017600004C1E9FF05C1EAFFEF6E0101042B000E81
:101770000523022B0323DF06010E01E2DB06E4D77B
:10178000020EE15C02E2E16AE552E16EE552E7CF6A
:10179000D9FF1200D9CFE6FFE1CFD9FF020EE12633
:1017A000030E04010015E76E010EE7CFDBFF01C455
:1017B000DFFFDE5001010627DD500723280E026FF0
:1017C000040E036FD9CFE9FFDACFEAFFEE50ED1038
:1017D00014E002C1E9FF03C1EAFFEF5004C1E9FFD1
:1017E00005C1EAFFEF6E042B000E0523022B032335
:1017F000DF06010E01E2DB06E5D7020EE15C02E244
:10180000E16AE552E16EE552E7CFD9FF120001012E
:1018100001510CE10401080E016F200E026F040E4D
:10182000036F840E006F0401046F35D0040120AFF4
:1018300022D0010106510401265D01010751040176
:10184000275904E226C406F127C407F135DF010158
:10185000010E006F0401080E016F200E026F040ECE
:10186000036F800E006F0401280E066F040E076FD1
:10187000C80E046F10D00101020E006F0401056B49
:10188000C80E046F0401080E016F280E026F040ECB
:10189000036FC80E006F6D9812000101006B040108
:1018A000080E016F200E026F040E036F880E006F8A
:0618B0000401046B1200AC
:0A18B6006DA60FD802D06DB613D84E
:1018C0000001F90508E16DBA06D0686A696A6980A5
:1018D0006988020EF96F12006D6A696A6D860001EF
:1018E000010EF96F12006D6A696A0001F96B12004E
:1018F00073EF0CF00001F95101E133D06850040B93
:1019000004E06950040B01E035D86DB22AD068506C
:10191000010B04E06950010B01E04DD86850400B09
:1019200004E06950400B01E03BD86850200B04E014
:101930006950200B01E036D86850020B04E0695072
:10194000020B01E036D8030E0001F95D01E209D077
:101950006850080B06E06950080B03E0DEEC0AF063
:1019600068961200698468986D82A19AA08A030023
:10197000A09A12006D926994689412000001FAA175
:101980000ED0F8DF6D840001080EFD6F070EFE6FAC
:10199000FD07000EFE5BFD51FE11FAE16D94120091
:1019A000689C120070A003D04DEC0CF07090689A07
:1019B0001200689212006A6A686A9F0E6B6E7B0E54
:1019C000696E6E6A0F0EE66E710EE66E0F0EE66EB3
:1019D00014D8E552E552E552160E706E68A602D094
:1019E0006896FCD76D984DEC0CF00001FA9100015F
:1019F000FB6B0001030EF96F1200D9CFE6FFE1CFB8
:101A0000D9FFFD0EDBCFE9FFFE0EDBCFEAFFFC0EB8
:101A1000DB5004E0EE6AFC0EDB06F9D7E552E7CFB7
:041A2000D9FF1200D8
:0C1A2400D9CFE6FFDACFE6FFFA0EE3CFE1
:101A3000D9FFFB0EE3CFDAFFFC0EE3CFE9FFFD0E8B
:101A4000E3CFEAFFE9CFF3FFEACFF4FFF80EE3506C
:101A500003E1F90EE35008E0F80EE30602E2F90EA6
:101A6000E306DECFEEFFF2D7FF0EE3CFDAFFE5525B
:101A7000FF0EE3CFD9FFE5521200FB0EE3CFF6FFD6
:101A8000FC0EE3CFF7FFFD0EE3CFF8FFFE0EE3CF32
:101A9000E9FFFF0EE3CFEAFFE9CFF3FFEACFF4FF60
:101AA000F90EE35003E1FA0EE35009E0F90EE30604
:101AB00002E2FA0EE3060900F5CFEEFFF1D71200BD
:101AC000FE0EE3CFE9FFFF0EE3CFEAFFE9CFF3FF1E
:101AD000EACFF4FFFB0EE35003E1FC0EE35009E014
:101AE000FB0EE30602E2FC0EE306FD0EE350EE6E93
:101AF000F1D71200D9CFE6FFDACFE6FFFA0EE3CF37
:101B0000D9FFFB0EE3CFDAFFFC0EE3CFE9FFFD0EBA
:101B1000E3CFEAFFE9CFF3FFEACFF4FFDECFEFFF39
:101B2000EE66FCD7FF0EE3CFDAFFE552FF0EE3CF00
:101B3000D9FFE5521200FB0EE3CFF6FFFC0EE3CF18
:101B4000F7FFFD0EE3CFF8FFFE0EE3CFE9FFFF0E38
:101B5000E3CFEAFFE9CFF3FFEACFF4FF0900F5CFC7
:101B6000EFFFEE66FBD71200FE0EE3CFE9FFFF0E9C
:101B7000E3CFEAFFF36AF46AEE5203E0F34AF42A91
:041B8000FBD712007D
:0C1B84001201000202000008D8040A0050
:101B90000000010200010902430002010080320935
:101BA00004000001020201000524001001042402C7
:101BB000020524060001052401000107058203082F
:101BC000000209040100020A0000000705030240A8
:101BD0000000070583024000000403090434034D9C
:101BE000006900630072006F0063006800690070A4
:101BF00000200054006500630068006E006F006CF8
:101C0000006F0067007900200049006E0063002E1D
:101C10000034034300440043002000520053002DD1
:101C200000320033003200200045006D0075006C6A
:101C3000006100740069006F006E002000440065C0
:101C4000006D006F00961B961BD91BDD1B111C3A03
:011C50000F84
:0E1C52000E0EF66E000EF76E000EF86E00011C
:101C60000900F550F46F0900F550F56F03E1F467D2
:101C700001D03DD00900F550EF6F0900F550F06F2D
:101C80000900F550F16F09000900F550E96E0900EF
:101C9000F550EA6E090009000900F550F26F0900DD
:101CA000F550F36F09000900F6CFF6F0F7CFF7F023
:101CB000F8CFF8F0EFC0F6FFF0C0F7FFF1C0F8FF83
:101CC0000001F25302E1F35307E00900F550EE6E14
:101CD000F207F8E2F307F9D7F6C0F6FFF7C0F7FF0F
:101CE000F8C0F8FF0001F407000EF55BBFD7120043
:101CF000D9CFE6FFDACFE6FFE1CFD9FFE2CFDAFFB7
:101D0000AC6AAB6AFD0EDBB0AC88DBA202D0AC8C57
:101D1000AB8CDBB4AC8EDBA602D0AB8801D0AB8A37
:101D2000DBB8AC849E98DBBAAB86DBAC02D09D8A74
:101D300001D09D9A9E9ADBAE02D09D8801D09D98DD
:101D4000FB0EDB50AF6EFB0EFC0EDBCF21F021C093
:101D500020F0216A2050B06EAC8AAB8E949C948E99
:101D6000AC50100B04E0AC50800B01E1948CE552B8
:0A1D7000E5CFDAFFE7CFD9FF12003C
:061D7A00D9CFE6FFE1CF26
:101D8000D9FF020EE1260001FF6B236A246A010ECF
:101D9000256EFE0EDB50296E2A6A9D0E086E096ABA
:101DA00029C00DF02AC00EF0C3EC06F006C026F0E4
:101DB00007C027F0286A27BE28682650235C206EBB
:101DC00027502458216E28502558226E20C0DEFF4F
:101DD00021C0DDFFDECF20F0DDCF21F021C020F0DB
:101DE000216A2050D76EDF50D66ED58E020EE15C90
:101DF00002E2E16AE552E16EE552E7CFD9FF120057
:101E000005D80FD862EC00F0FCD71200F26A040E7D
:101E10006F6E0001F96B0001FA6B0001FB6B0EEFB6
:101E200000F05BEC0CF06FBE02D07AEC0CF0E2EF4D
:021E300008F0B8
:0E1E3200D9CFE6FFDACFE6FFE1CFD9FFE2CF4E
:101E4000DAFFFD0EDB50B86EE552E5CFDAFFE7CFE3
:041E5000D9FF1200A4
:0C1E540013EE00F023EE00F0F86A019C91
:101E600029EC0EF003EC00F000EC0FF0FBD71200B1
:0E1E700000EE00F00F0EEE6AEA62FDD71200DF
:021E7E00000062
:00000001FF
