:020000040000FA
:060000003BEF0FF01200BF
:020006001200E6
:06000800FAEF02F0120005
:02000E000100EF
:0C001000921E00008F00000002000000A3
:04001C00D9CFE6FF53
:10002000E1CFD9FFE652010EE66E7DDBE552050118
:10003000D46F020EE66E77DBE5520501D56FB36B28
:10004000B46BD06B926A936AB90E9416C80ED56ED3
:10005000020E9D6E9D86080EA06EF06A840EF16EF3
:10006000E00EF26E070ECA6E0F0EBD6EF80ECB6E6E
:10007000BE6A870ED56EAF6BB06B0001010E926F3A
:100080000F0EE66EE66AE66A880EE66E050EE66E0E
:1000900061EC0DF0206E050EE15E20500501986BBD
:1000A000A36B300EBC6FBD6FD4C5D1F5816A806A79
:1000B000B86FB96FBA6FBB6FD26BD36BE552E552B5
:1000C000E7CFD9FF1200D9CFE6FFE1CFD9FF020E6B
:1000D000E1260501A36B060E0501FC5D03E36D50EF
:1000E000020B01E092D00A0EE66EC00EE66E050E1F
:1000F000E66E28EC08F0E552E552E5520501AF6FD7
:1001000000090EE0B45101E18AD80501B40501E10E
:10011000FBD8020E0501B45D01E11FD90501B36BE7
:10012000030EB45D19E13ED9040E0501B45D14E17E
:100130000A0E9C6F000161510FE10001990E626F80
:10014000050E636F0001040E666F0001676B00010E
:10015000010E616F0501B46B140E0501B45D1AE167
:10016000410E996F430E9A6F4B0E9B6F0A0E9C6F58
:10017000000161510FE10001990E626F050E636F7E
:100180000001040E666F0001676B0001010E616FD4
:100190000501B46B0A0E0501B45D37E1D251D311EC
:1001A00007E1010ED26FD36B81688068D5C5D1F5A8
:1001B000E80ED21902E1030ED31927E1410E996F1F
:1001C000430E9A6F4B0E9B6F0A0E9C6F816A806A7A
:1001D000D4C5D1F5360EBC6F340EBD6F300EB86F7E
:1001E000B96FBA6FBB6F000161510FE10001990E49
:1001F000626F050E636F0001040E666F0001676B8E
:100200000001010E616F0501B46B020EE15C02E2B8
:10021000E16AE552E16EE552E7CFD9FF1200D9CF8E
:10022000E6FFE1CFD9FFE6520501C051550A52E081
:10023000100A3BE01F0A29E0130A22E0110A1EE01F
:10024000150A17E01F0A10E01E0A09E01F0A02E063
:10025000B46B55D0530EB56F010EB46F50D04C0E29
:10026000B56F010EB46F4BD0520EB56F010EB46F67
:1002700046D04D0EB56F010EB46F41D0B46B3FD078
:100280000A0EB46FD26BD36B3AD0140EB46F816A7E
:10029000806AD4C5D1F5360EBC6F340EBD6F300EFA
:1002A000B86FB96FBA6FBB6F2AD0300EC25D206EC7
:1002B000300EC15D0A0DF3502024DF6EDFCFD4F580
:1002C000DFCFE6FF010EE66E3EDAE552E5520501AC
:1002D000B46B15D0300EC25D206E300EC15D0A0DBC
:1002E000F3502024DF6EDFCFD5F5DFCFE6FF020E1F
:1002F000E66E29DAE552E5520501B46B00D0E5520D
:10030000E552E7CFD9FF1200580E0501C15D02E1A9
:10031000B46B22D0300EC15D0DE3C15139080AE340
:10032000300EC15D100DF3CFB6F5020EB46FC1C52E
:10033000BEF512D0410EC15D0EE3C15146080BE37C
:10034000410EC15D0A0F100DF3CFB6F5020EB46F6A
:10035000C1C5BEF501D0B46B1200580E0501C25DD7
:1003600002E1B46B1ED0300EC25D0BE3C2513908FE
:1003700008E3300EC25DB76F030EB46FC2C5BFF5A0
:1003800010D0410EC25D0CE3C251460809E3C2C55C
:10039000BFF5410EC25D0A0FB76F030EB46F01D0F7
:1003A000B46B1200D9CFE6FFE1CFD9FF070EE126EB
:1003B000030EDB6A040EDB6A050EDB6A0501B6AFCD
:1003C00031D0B5514D0A24E01F0A19E01E0A0EE093
:1003D0001F0A03E0040EB46F24D0730E996FBCC5DE
:1003E0009AF5BDC59BF5040EB46F1BD06C0E996FCA
:1003F000300E9A6FBAC59BF5040EB46F12D0720E10
:10040000996F300E9A6FBBC59BF5040EB46F09D07F
:100410006D0E996FB8C59AF5B9C59BF5040EB46F0A
:1004200000D0DED0B5514D0A01E1C0D01F0A64E012
:100430001E0A1DE01F0A01E0D2D0BEC5BCF5BFC533
:10044000BDF5B651B725DF6EB46B060ED4C5DBFF24
:10045000DB50D880DF5403E2D4C5DFFF05D0D5518F
:10046000DF5C02E2D5C5DFFFDFCFD1F5B8D0BFC575
:10047000BAF5030EDB6A010EB715010807E1030E9A
:10048000DB500809E76E030EE7CFDBFF020EB7155E
:10049000020807E1030EDB500409E76E030EE7CF05
:1004A000DBFF040EB715040807E1030EDB50020959
:1004B000E76E030EE7CFDBFF080EB715080807E16C
:1004C000030EDB500109E76E030EE7CFDBFFF00EF2
:1004D0008914E76E010EE7CFDBFF030EDBCFE6FFEB
:1004E000010EDB50E552E710E76E010EE7CFDBFFB0
:1004F000DB50806EB46B73D0040EDB6A050EDB6AD2
:10050000BFC5BBF5010EB715010807E1050EDB50AD
:100510000209E76E050EE7CFDBFF020EB7150208F2
:1005200007E1050EDB500109E76E050EE7CFDBFFA3
:10053000040EB715040807E1040EDB502009E76E2E
:10054000040EE7CFDBFF080EB715080807E1040E1D
:10055000DB501009E76E040EE7CFDBFF0F0E8914A6
:10056000E76E010EE7CFDBFF040EDBCFE6FF010EE7
:10057000DB50E552E710E76E010EE7CFDBFFDB5003
:10058000806EFC0E8A14E76E020EE7CFDBFF050ECD
:10059000DBCFE6FF020EDB50E552E710E76E020EFE
:1005A000E7CFDBFFDB50816EB46B19D0BEC5B8F569
:1005B000BFC5B9F5B651B725040DF350DF6E030E74
:1005C0008A14E76E020EE7CFDBFFDB50DF10E76E29
:1005D000020EE7CFDBFFDB50816EB46B00D0B46B53
:1005E000070EE15C02E2E16AE552E16EE552E7CF17
:1005F000D9FF1200DACFE4FFE2CFDAFFE9CFE4FF60
:10060000EACFE4FFF6CFE4FFF7CFE4FFF3CFE4FF58
:10061000F4CFE4FFFACFE4FF00EE00F0140EE8049C
:1006200003E3EECFE4FFFBD7E652F2A406D0F29448
:100630000001010E926FD59E5CD09EA25AD005019A
:10064000D251D31103E0D22B000ED323D05103E1BA
:10065000BE68D02B4DD0D00545E1520E186EB80EB5
:10066000196E1E0E1A6EC00E1B6ED1C509F0AFECCE
:1006700005F007C01CF008C01DF009C01EF00AC03C
:100680001FF01CC00CF01DC00DF01EC00EF01FC0EE
:100690000FF018C007F019C008F01AC009F01BC00D
:1006A0000AF057EC06F007C014F008C015F009C0B6
:1006B00016F00AC017F00C6A0D6A780E0E6E430E23
:1006C0000F6E14C007F015C008F016C009F017C06F
:1006D0000AF0C1EC05F0F1EC06F00950BE6E050120
:1006E000D02B06D0BE6AD02B140ED05D01E1D06BAA
:1006F0009E92E55200EE13F0140EE80403E3E5CFFA
:10070000EDFFFBD7E5CFFAFFE5CFF4FFE5CFF3FF31
:10071000E5CFF7FFE5CFF6FFE5CFEAFFE5CFE9FF4D
:10072000E5CFDAFF1100D9CFE6FFE1CFD9FFFE0E0A
:10073000DB50A96EA69EA69CA680A85000D0E552CC
:10074000E7CFD9FF1200D9CFE6FFE1CFD9FFF29E64
:10075000A69EA684FE0EDB50A96EFD0EDB50A86E91
:10076000550EA76EAA0EA76EA682A1A8FED7A198C5
:0A077000F28EE552E7CFD9FF120028
:06077A00D9CFE6FFE1CF3C
:10078000D9FF040EE1264F0EAB16AC9ACF0E9D1684
:10079000DF6ADFCF20F0100EE76E2018E8AE02D03F
:1007A000E73402D0E750205C16E2DFCFE9FFEA6AC7
:1007B000E9BEEA68D60EE926050EEA22EF6ADFCF27
:1007C000E9FFEA6AE9BEEA68E60EE926050EEA22D2
:1007D000EF6ADF2ADED70501F66BF86BF76BF96B72
:1007E000FE0EDB040DE1010EFA6F2C0EF36E020E0D
:1007F000F3CFDBFF030EDB6ADE52680EDD6E0CD03A
:10080000020EFA6F2C0EF36E020EF3CFDBFF030E17
:10081000DB6ADE52330EDD6E010EDBCFE6FFE66AE9
:10082000020EDBCFE6FF79EC0EF0E552E552E55221
:10083000FC0EE66E1AEC0FF0E5529D9A9D989E9A7A
:100840009E989D8A9D88040EE15C02E2E16AE55271
:10085000E16EE552E7CFD9FF1200D9CFE6FFE1CF35
:10086000D9FF0501F65100080EE3FC0EDBCF20F0A6
:10087000100EE76E2018E8AE02D0203403D0E75007
:10088000D880205403E2000E25D024D0FC0EDBCF0C
:1008900020F0216A20BE216820C0E6FF21C0E6FFCB
:1008A000FD0EDBCFE6FFFE0EDBCFE6FFD60EE66EDB
:1008B000050EE66E13EC0DF0226E060EE15E225080
:1008C000FC0EDB040501F66F010EF76FD6C5ADFF18
:1008D0009D8800D0E552E7CFD9FF1200D9CFE6FFBF
:1008E000E1CFD9FF0501F65100080EE3FC0EDBCF86
:1008F00020F0100EE76E2018E8AE02D0203403D0AE
:10090000E750D880205403E2000E2CD02BD0FC0EF0
:10091000DBCF20F0216A20BE216820C0E6FF21C085
:10092000E6FFFD0EDBCF22F0FE0EDBCF23F0246AC4
:1009300022C0E6FF23C0E6FF24C0E6FFD60EE66E27
:10094000050EE66E3EEC0DF0256E070EE15E2550BD
:10095000FC0EDB040501F66F010EF76FD6C5ADFF87
:100960009D8800D0E552E7CFD9FF1200D9CFE6FF2E
:10097000E1CFD9FF0501F651000803E2000E2BD0AC
:100980002AD0FD0EDBCFE6FFFE0EDBCFE6FFD60E54
:10099000E66E050EE66E7BEC0DF0E552E552E55293
:1009A000E552FD0EDBCFE6FFFE0EDBCFE6FFB5EC3A
:1009B0000DF0E552E552F3CF20F0F4CF21F0200600
:1009C000000E215A20C0F6F5D6C5ADFF9D88050161
:1009D000010EF76F00D0E552E7CFD9FF1200D9CF53
:1009E000E6FFE1CFD9FF0501F651000803E2000E52
:1009F00032D031D0FD0EDBCF20F0FE0EDBCF21F068
:100A0000226A20C0E6FF21C0E6FF22C0E6FFD60E24
:100A1000E66E050EE66E9CEC0DF0236E050EE15EB3
:100A20002350FD0EDBCFE6FFFE0EDBCFE6FFB5EC7D
:100A30000DF0E552E552F3CF20F0F4CF21F020067F
:100A4000000E215A20C0F6F5D6C5ADFF9D880501E0
:100A5000010EF76F00D0E552E7CFD9FF1200D9CFD2
:100A6000E6FFE1CFD9FFE652010E0501F85D02E293
:100A7000000E27D0F8C5DFFFF851E66EE66AE60EF5
:100A8000E66E050EE66EFD0EDBCFE6FFFE0EDBCF5B
:100A9000E6FF13EC0DF0206E060EE15E2050DFCF76
:100AA00020F0216A20BE2168FD0EDB502024E96E73
:100AB000FE0EDB502120EA6EEF6A0501F86B010E95
:100AC00000D0E552E552E7CFD9FF1200D9CFE6FFBB
:100AD000E1CFD9FFE652FC0EDB500501F85D02E2E2
:100AE000000E38D0FC0EDB50DF6EFD0EDBCFE9FFD1
:100AF000FE0EDBCFEAFFEF6ADFCF20F0216A20BED7
:100B0000216820C0E6FF21C0E6FFE60EE66E050E76
:100B1000E66EFD0EDBCFE6FFFE0EDBCFE6FF13EC4D
:100B20000DF0226E060EE15E22500501E66BDFCF6E
:100B300020F0216A20BE2168FD0EDB502024E96EE2
:100B4000FE0EDB502120EA6EEF6AF8C5FBF5F86B6C
:0E0B5000010E00D0E552E552E7CFD9FF1200AA
:020B5E00019EF6
:100B600005D0019E09AE02D0096C018E09C003F0C8
:100B7000026A136A126A860E046E056A34EF07F081
:100B80000F7E016A70EC07F088EC07F001B618EFF1
:100B900007F001A20AD001AA03D001BE18EF07F0A6
:100BA00001A424EF07F021EF07F001AA05D001AC62
:100BB00024EF07F021EF07F001A00AD001A808D028
:100BC00001BE04D001A402D02DEF07F031EF07F0F1
:100BD000126A056A0F500A5C116E10E307C013F029
:100BE00008C002F009C003F00AC010F00CC007F002
:100BF0000DC008F00EC009F0013A09D00CC013F086
:100C00000DC002F00EC003F00FC010F0116C019E79
:100C100001BC018E10C004F001B060EF07F01A0EA5
:100C2000116060EF07F0046A0A6A01A408D0076C3B
:100C3000081E091E0A1EE86A082209220A2201ACBF
:100C400008D0136C021E031E041EE86A022203224F
:100C50000422066A115207E00A34093208320732C8
:100C60000632112EF9D707501326085002220950D8
:100C700003220A50042206C012F0019E04AE0BD0DB
:100C8000126C131E021E031E041EE86A13220222A7
:100C900003220422018E04A006D0D880033202323F
:100CA00013321232102A10C004F034EF07F0016A38
:100CB00070EC07F088EC07F001B618EF07F001A21E
:100CC00005D001B818EF07F01FEF07F001AA05D013
:100CD00001B018EF07F01FEF07F001B002D001A834
:100CE00002D02BEF07F0056A0F500A24046EE86A61
:100CF00005227E0E045EE86A055A126A136A026AC9
:100D0000036A0E500902F4CF03F0F3CF02F00D5046
:100D10000902F3501326F4500222000E03220E5053
:100D20000802F3501326F4500222000E03220C5046
:100D30000902F3501226F4501322000E022203225D
:100D40000D500802F3501226F4501322000E022216
:100D500003220E500702F3501226F4501322000E05
:100D6000022203220C500802F4501226000E132215
:100D7000022203220D500702F4501226000E132205
:100D80000222032234EF07F009C013F008C012F06A
:100D900008500D02F4CF07F0F3CF06F009500E0211
:100DA000F4CF09F0F3CF08F00D02F3500726F4500A
:100DB0000822E86A092212500E02F3500726F45066
:100DC0000822E86A09220EAEEAEF06F01250085E29
:100DD0001350095A13AE000C0D50085E0E50095AFC
:100DE000000C016A70EC07F001B6FBEF06F001A2FF
:100DF0000AD001B403D07F0E096E19D0800E096E9F
:100E000016D0096A14D001B0FCD7870E0A60F1D75A
:100E10007E0E0A64F6D7860E0A5C04E0D89009328A
:100E20000A2AF9D701A403D0096C09AEEAD7120047
:100E30007F0E0A6EFF0E096E086E076E12007F0E9F
:100E400001BEFF0E0A6E02D07F0E0A6E800E096E82
:100E5000086A076AF3D701AE04D0800E0A6E096AE9
:100E6000F7D70A6A096AF4D7035002101310121058
:100E7000F8E005BEF0D703BE0CD004500510EBE03F
:100E8000D89012361336023603360406D8A005066B
:100E9000F2D70550D4E10428D2E012AE11D07F0E73
:100EA000121402E113A00CD0132AE86A02220322D2
:100EB00007E3D880033202321332042A0428BFE049
:100EC0000450C9E013C007F002C008F00334096EF3
:100ED00004300A6E09320A9E01BE0A8E1EEF07F028
:100EE00009360A3602E30184017E06E101800A6ABE
:100EF000096A086A076A12000A2803E0D8800932E2
:100F00001200D890093202E101821200018612001B
:100F10000E360F3602E3018C017E06E101880F6A6E
:100F20000E6A0D6A0C6A12000F2803E0D8800E3298
:0C0F30001200D8900E32EAE1018A120093
:040F3C00040120513B
:100F40001F0B010801E05BD02051600BE842E84232
:100F5000E842E842E842010801E051D0245103E0B0
:100F6000240501E04CD02151230A48E0010A40E069
:100F7000030A30E0010A25E0240A22E0070A1FE004
:100F8000010A1CE0030A11E0010A01E038D0000167
:100F9000030E866F0001730E876F000E886F0501C8
:100FA000FD930001080E8B6F2AD00001030E866F9F
:100FB0000001730E896F000E8A6F21D020D01FD0E0
:100FC0001ED00001030E866F0001680E896F000EAF
:100FD0008A6F15D00001030E866F0001680E876FBF
:100FE000000E886F0501FD930001070E8B6F07D07F
:100FF0000001030E866F22C46FF001D000D01200F2
:101000000001686BC20E696F010E6A6F6B6B6C6BCF
:101010006D6B080E6E6F616B606B1A0E726E1E0E3A
:10102000736E0401000E166F050E176F400E146FDD
:101030000401196F080E1A6F050E1B6F880E186FCA
:101040000401480E1E6F050E1F6F400E1C6F12002C
:10105000D9CFE6FFE1CFD9FF0001606B040118BFD3
:1010600030D0FC0EDBCF20F01951D880205403E2A1
:10107000FC0E19C4DBFF0001606BFC0EDB50605DF1
:1010800019E26051EA6A080FE96E050EEA22EF5094
:10109000E66E6051E76EFD0EDBCFE9FFFE0EDBCFA3
:1010A000EAFFE750E926000EEA22E552E750EF6E2C
:1010B000602BE3D70401400E196F1817187D880EB6
:1010C00018130001605100D0E552E7CFD9FF12009C
:1010D000D9CFE6FFE1CFD9FFE6520001615101E02F
:1010E0002FD0DF6ADF2ADF50206E216AFF0E201822
:1010F00001E1215001E10BD0FD0EDBCFE9FFDB2A3E
:10110000FE0EDBCFEAFF01E3DB2AEF50EBE1DF501D
:10111000206E216AD950FD0FE96EFF0EDA20EA6ECB
:101120002050EE5E2150ED5AFD0EDBCF62F0FE0E38
:10113000DBCF63F0DFCF66F00001676B010E616FFC
:10114000E552E552E7CFD9FF1200D9CFE6FFE1CF54
:10115000D9FFE6520001615101E030D0DF6ADF2A99
:10116000DF50206E216AFF0E201801E1215001E1BD
:101170000CD0FD0EDBCFF6FFDB2AFE0EDBCFF7FF38
:1011800001E3DB2A0800F550EAE1DF50206E216A16
:10119000D950FD0FE96EFF0EDA20EA6E2050EE5EA8
:1011A0002150ED5AFD0EDBCF62F0FE0EDBCF63F077
:1011B000DFCF66F00001010E676F616FE552E55207
:1011C000E7CFD9FF1200D9CFE6FFE1CFD9FFE65232
:1011D00004011CBF6BD0030E0001615D01E1616B76
:1011E000615101E163D0020E615D06E104011D6BF6
:1011F0000001030E616F54D0610552E1400E206E74
:10120000216A6651205C000E215803E2400EDF6E19
:1012100002D066C0DFFFDFCF1DF4DF50665D666F72
:10122000480E646F050E656F670515E1DF5012E02B
:1012300062C0F6FF63C0F7FF0800F55064C0E9FF25
:1012400065C0EAFFEF6E642B000E6523622B6323FB
:10125000DF06ECD713D0DF5011E062C0E9FF63C0B6
:10126000EAFFEF5064C0E9FF65C0EAFFEF6E642B50
:10127000000E6523622B6323DF06EDD7665110E174
:1012800004011D51206E216A400E201801E12150F9
:1012900004E10001020E616F03D00001030E616FD3
:1012A000400E04011C171C7D880E1C13E552E552EC
:0612B000E7CFD9FF120098
:0A12B60004012051600BE842E842F9
:1012C000E842E842E842000901E055D02151070A0E
:1012D00051E00B0A4FE0070A40E0010A2CE00B0A3C
:1012E00028E0020A26E0030A22E0080A12E0010AC6
:1012F0000EE00F0A0AE0030A01E03CD00001010EF3
:10130000866F0501040EFC6F36D036D834D090D8E5
:1013100032D00001010E866F0001FE0E876F050EB0
:10132000886F0501FD930001010E8B6F24D0A8D8B2
:1013300022D0F4D820D00001010E866F0401245180
:101340000001876F886BFF0E8727050E8823050134
:10135000FD930001010E8B6F0ED00001010E866F10
:1013600004012451EA6AFF0FE96E050EEA2222C445
:10137000EFFF01D000D01200800E0401205D57E184
:101380002351030A34E0010A10E0030A01E04DD0C2
:101390000001010E866F0001860E876F1B0E886F9D
:1013A000120E00018B6F8C6B40D00001010E866F16
:1013B00004012251F66EF76AD890F636F736470EDA
:1013C000F6261C0EF7220900F5CF87F00A00F5CFAC
:1013D00088F0020E0001F76A8725F66E8851F72221
:1013E0000900F5CF8BF00A00F5CF8CF01ED000017C
:1013F000010E866F04012251F66EF76AD890F63618
:10140000F7364B0EF6261C0EF7220900F5CF87F0B3
:101410000A00F5CF88F087C0F6FF88C0F7FF080004
:10142000F55000018B6F8C6B00D00501FD8312001D
:101430000001010E866F0F0EE66E710EE66E0F0E46
:10144000E66EFEEC0CF0E552E552E552010EE66E5A
:10145000FF0EE66E050EE66EFEEC0CF0E552E55270
:10146000E55222C4FEF50401225104E10501050EF6
:10147000FC6F05D00501060EFC6F00EC08F01200B1
:101480000401286B296B040120511F0B020A14E090
:10149000030A0EE0010A01E033D00001010E866F5D
:1014A000040128810501FDA102D00401288328D070
:1014B0000001010E866F24D00001010E866F040129
:1014C00024510F0B080DF350216A000F206E040EFB
:1014D00021222451800B01E0010E040DF350000184
:1014E0002024896F000E21208A6F89C0E9FF8AC0FD
:1014F000EAFFEF50040B03E00401010E286F00D057
:10150000000186050AE10001280E876F040E886F2E
:101510000501FD930001020E8B6F120004012205EC
:1015200010E120511F0B00090CE10001010E866F34
:10153000030E0401215D03E10501FD8102D00501D7
:10154000FD91040122513AE120511F0B020836E1BE
:1015500024510F0B000932E00001010E866F0401D7
:1015600024510F0B080DF350216A000F206E040E5A
:1015700021222451800B01E0010E040DF3500001E3
:101580002024896F000E21208A6F030E0401215D43
:1015900007E1840E89C0E9FF8AC0EAFFEF6E0ED032
:1015A00024AF06D089C0E9FF8AC0EAFFEF6A06D0FF
:0E15B000880E89C0E9FF8AC0EAFFEF6E1200C4
:0215BE006C506F
:1015C00002E0000E01D0010E00090BE00401005101
:1015D0003C0BE842E8420D0802E10CD801D040D8AB
:1015E00008D06C5002E0000E01D0010E040901E0A9
:1015F00047D81200D9CFE6FFE1CFD9FFE65200016C
:10160000856B866B8B6B8C6B5BEC09F0DF6ADF5054
:10161000206E216A010E205C000E21581BE20001A1
:10162000865101E017D0F76ADF34FE0BF736F66E0D
:10163000510EF6261C0EF7220900F5CF20F0080007
:10164000F5CF21F004D021C0FAFF2050F96EFBDF66
:10165000DF2ADDD7DDD8E552E552E7CFD9FF12000A
:10166000020E0001855D0AE196D8040100BD03D099
:10167000C80E006F02D0880E006F01D00FD9120083
:10168000040E0501FC5D0AE122C46EFF6E500008E5
:1016900003E2050EFC6F02D0030EFC6F000185050E
:1016A0000AE10BD8040104BD03D0C80E046F02D0B8
:1016B000880E046F01D0F2D81200D9CFE6FFE1CF37
:1016C000D9FF020EE1260001080E8B5D000E8C5939
:1016D00005E28BC0DEFF8CC0DDFF03D0080EDE6E9E
:1016E000DD6A040104930491010EDB500413DFCF83
:1016F00005F4000EDB5000018B5F010EDB508C5BAC
:10170000280E896F040E8A6F0501FDA31ED0D9CF64
:10171000E9FFDACFEAFFEE50ED1016E087C0F6FFE2
:1017200088C0F7FF0800F55089C0E9FF8AC0EAFFCA
:10173000EF6E0001892B000E8A23872B8823DF069A
:10174000010E01E2DB06E3D71CD0D9CFE9FFDACFE7
:10175000EAFFEE50ED1015E087C0E9FF88C0EAFF10
:10176000EF5089C0E9FF8AC0EAFFEF6E0001892BC4
:10177000000E8A23872B8823DF06010E01E2DB0699
:10178000E4D7020EE15C02E2E16AE552E16EE55265
:10179000E7CFD9FF1200D9CFE6FFE1CFD9FF020E84
:1017A000E126030E04010015E76E010EE7CFDBFF13
:1017B00001C4DFFFDE5000018B27DD508C23280E93
:1017C000876F040E886FD9CFE9FFDACFEAFFEE50BA
:1017D000ED1014E087C0E9FF88C0EAFFEF5089C030
:1017E000E9FF8AC0EAFFEF6E892B000E8A23872B60
:1017F0008823DF06010E01E2DB06E5D7020EE15C7D
:1018000002E2E16AE552E16EE552E7CFD9FF12004C
:10181000000186510CE10401080E016F200E026FD9
:10182000040E036F840E006F0401046F35D00401B1
:1018300020AF22D000018B510401265D00018C51A4
:101840000401275904E226C48BF027C48CF035DF4D
:101850000001010E856F0401080E016F200E026F5A
:10186000040E036F800E006F0401280E066F040E35
:10187000076FC80E046F10D00001020E856F0401BF
:10188000056BC80E046F0401080E016F280E026F6D
:10189000040E036FC80E006F6D9812000001856B77
:1018A0000401080E016F200E026F040E036F880EF4
:0818B000006F0401046B12003B
:0818B8006DA60FD802D06DB639
:1018C00013D80501FC0508E16DBA06D0686A696A9B
:1018D00069806988020EFC6F12006D6A696A6D8604
:1018E0000501010EFC6F12006D6A696A0501FC6B4F
:1018F000120074EF0CF00501FC5101E133D0685087
:10190000040B04E06950040B01E035D86DB22AD015
:101910006850010B04E06950010B01E04DD868509C
:10192000400B04E06950400B01E03BD86850200BAD
:1019300004E06950200B01E036D86850020B04E047
:101940006950020B01E036D8030E0501FC5D01E28F
:1019500009D06850080B06E06950080B03E0DFEC83
:101960000AF068961200698468986D82A19AA08A2C
:101970000300A09A12006D92699468941200050108
:10198000FDA10ED0F8DF6D840001080E8D6F070EEB
:101990008E6F8D07000E8E5B8D518E11FAE16D9466
:1019A0001200689C120070A003D04EEC0CF07090F6
:1019B000689A1200689212006A6A686A9F0E6B6EDB
:1019C0007B0E696E6E6A0F0EE66E710EE66E0F0E7E
:1019D000E66E14D8E552E552E552160E706E68A612
:1019E00002D06896FCD76D984EEC0CF00501FD9185
:1019F0000501FE6B0501030EFC6F1200D9CFE6FF57
:101A0000E1CFD9FFFD0EDBCFE9FFFE0EDBCFEAFF12
:101A1000FC0EDB5004E0EE6AFC0EDB06F9D7E55263
:061A2000E7CFD9FF120020
:0A1A2600D9CFE6FFDACFE6FFFA0E93
:101A3000E3CFD9FFFB0EE3CFDAFFFC0EE3CFE9FFE4
:101A4000FD0EE3CFEAFFE9CFF3FFEACFF4FFF80E94
:101A5000E35003E1F90EE35008E0F80EE30602E27A
:101A6000F90EE306DECFEEFFF2D7FF0EE3CFDAFF8B
:101A7000E552FF0EE3CFD9FFE5521200FB0EE3CF94
:101A8000F6FFFC0EE3CFF7FFFD0EE3CFF8FFFE0EEF
:101A9000E3CFE9FFFF0EE3CFEAFFE9CFF3FFEACFA1
:101AA000F4FFF90EE35003E1FA0EE35009E0F90EFA
:101AB000E30602E2FA0EE3060900F5CFEEFFF1D7E6
:101AC0001200FE0EE3CFE9FFFF0EE3CFEAFFE9CFFE
:101AD000F3FFEACFF4FFFB0EE35003E1FC0EE3500B
:101AE00009E0FB0EE30602E2FC0EE306FD0EE35006
:101AF000EE6EF1D71200D9CFE6FFDACFE6FFFA0E8D
:101B0000E3CFD9FFFB0EE3CFDAFFFC0EE3CFE9FF13
:101B1000FD0EE3CFEAFFE9CFF3FFEACFF4FFDECF1C
:101B2000EFFFEE66FCD7FF0EE3CFDAFFE552FF0EC4
:101B3000E3CFD9FFE5521200FB0EE3CFF6FFFC0E18
:101B4000E3CFF7FFFD0EE3CFF8FFFE0EE3CFE9FF93
:101B5000FF0EE3CFEAFFE9CFF3FFEACFF4FF09007E
:101B6000F5CFEFFFEE66FBD71200FE0EE3CFE9FFE5
:101B7000FF0EE3CFEAFFF36AF46AEE5203E0F34AA2
:061B8000F42AFBD712005D
:0A1B86001201000202000008D8045A
:101B90000A00000001020001090243000201008066
:101BA00032090400000102020100052400100104B2
:101BB0002402020524060001052401000107058214
:101BC0000308000209040100020A000000070503DF
:101BD00002400000070583024000000403090434AA
:101BE000034D006900630072006F006300680069C4
:101BF000007000200054006500630068006E006FF4
:101C0000006C006F0067007900200049006E0063DF
:101C1000002E0034034300440043002000520053D0
:101C2000002D00320033003200200045006D0075A9
:101C3000006C006100740069006F006E00200044B9
:101C40000065006D006F00981B981BDB1BDF1B13EA
:031C50001C3C0F2A
:0C1C54000E0EF66E000EF76E000EF86E1D
:101C600000010900F550806F0900F550816F03E114
:101C7000806701D03DD00900F5507B6F0900F55019
:101C80007C6F0900F5507D6F09000900F550E96E81
:101C90000900F550EA6E090009000900F5507E6F51
:101CA0000900F5507F6F09000900F6CF82F0F7CFE9
:101CB00083F0F8CF84F07BC0F6FF7CC0F7FF7DC0D7
:101CC000F8FF00017E5302E17F5307E00900F55061
:101CD000EE6E7E07F8E27F07F9D782C0F6FF83C079
:101CE000F7FF84C0F8FF00018007000E815BBFD7BB
:021CF0001200E0
:0E1CF200D9CFE6FFDACFE6FFE1CFD9FFE2CF90
:101D0000DAFFAC6AAB6AFD0EDBB0AC88DBA202D0B6
:101D1000AC8CAB8CDBB4AC8EDBA602D0AB8801D034
:101D2000AB8ADBB8AC849E98DBBAAB86DBAC02D066
:101D30009D8A01D09D9A9E9ADBAE02D09D8801D0EB
:101D40009D98FB0EDB50AF6EFB0EFC0EDBCF21F03F
:101D500021C020F0216A2050B06EAC8AAB8E949CDA
:101D6000948EAC50100B04E0AC50800B01E1948CCD
:0C1D7000E552E5CFDAFFE7CFD9FF120003
:041D7C00D9CFE6FFD6
:101D8000E1CFD9FF020EE1260001926B236A246A9B
:101D9000010E256EFE0EDB50296E2A6A9D0E086E1E
:101DA000096A29C00DF02AC00EF0C4EC06F006C086
:101DB00026F007C027F0286A27BE28682650235C33
:101DC000206E27502458216E28502558226E20C09E
:101DD000DEFF21C0DDFFDECF20F0DDCF21F021C00E
:101DE00020F0216A2050D76EDF50D66ED58E020EBD
:101DF000E15C02E2E16AE552E16EE552E7CFD9FF2C
:021E00001200CE
:0E1E020005D80FD863EC00F0FCD71200F26A8E
:101E1000040E6F6E0501FC6B0501FD6B0501FE6B89
:101E20000EEF00F05CEC0CF06FBE02D07BEC0CF01F
:041E3000E3EF08F0E4
:0C1E3400D9CFE6FFDACFE6FFE1CFD9FFFF
:101E4000E2CFDAFFFD0EDB50B86EE552E5CFDAFFE8
:061E5000E7CFD9FF1200EC
:0A1E5600000EF36E00EE00F0080E1F
:101E600001D81200EA6002D0EE6AFCD7F350E960B4
:061E70001200EE6AFCD72F
:0A1E760013EE00F023EE00F0F86A0E
:101E8000019C2AEC0EF003EC00F001EC0FF0FBD704
:021E900012003E
:021E920000004E
:00000001FF
